:020000040800F2
:1000000020080020DD010008E5010008E7010008E4
:10001000E9010008EB010008ED0100080000000004
:100020000000000000000000000000004501000882
:10003000F10100080000000089010008010C00081F
:10004000F7010008F7010008F7010008F7010008B0
:10005000F7010008F7010008F7010008F7010008A0
:10006000F7010008F7010008F7010008F701000890
:10007000F7010008F7010008F7010008F701000880
:10008000F7010008F7010008F7010008F701000870
:10009000F7010008F7010008F7010008F701000860
:1000A000F7010008F7010008F7010008F701000850
:1000B000F7010008710C0008F7010008F7010008BB
:1000C000F7010008F7010008F7010008F701000830
:1000D000F7010008ED0F0008F7010008F70100081C
:1000E000F7010008F7010008F7010008F701000810
:1000F000F7010008F7010008F7010008F701000800
:10010000F7010008F7010008F7010008F7010008EF
:10011000F7010008F7010008F7010008F7010008DF
:10012000F7010008F7010008F7010008F7010008CF
:10013000DFF80CD000F064FA00480047B91B000853
:1001400020080020224B19680868B0E8F00F80F3FF
:100150000988BFF36F8F4FF0000080F311884EF0D5
:100160000D0E70470000000006480068006880F32C
:10017000088862B661B6BFF34F8FBFF36F8F00DFA1
:1001800000BF00BF08ED00E0EFF30980BFF36F8F01
:100190000F4B1A6820E9F00F106008B54FF05000BF
:1001A00080F31188BFF34F8FBFF36F8F01F034FFDF
:1001B0004FF0000080F31188BDE808401968086816
:1001C000B0E8F00F80F30988BFF36F8F704700BF6E
:1001D00028000020EFF305807047000006488047A4
:1001E00006480047FEE7FEE7FEE7FEE7FEE7FEE71C
:1001F000FEE7FEE7FEE7FEE7110C0008310100080C
:1002000030B50B46014600202022012409E021FAE6
:1002100002F59D4205D303FA02F5491B04FA02F5E3
:100220002844151EA2F10102F1DC30BD2DE9F05F7A
:100230000546002092469B46884606468146402455
:100240001BE0284641464746224600F0FAF953464D
:100250005A46C01A914110D311461846224600F062
:10026000E1F92D1A67EB01084F46224601200021D3
:1002700000F0D8F917EB00094E41201EA4F101044B
:10028000DFDC484631462A464346BDE8F09F2DE96B
:10029000FE4F804681EA0300C00F0C46009021F01B
:1002A000004123F00045B8EB0200A94105D24046C9
:1002B000214690461C460B46024623F00040104360
:1002C00047D0270DC7F30A00C3F30A510290401A22
:1002D000019040286BDAC3F3130040F4801B0098B0
:1002E000924620B10023D2EB030A63EB0B0B01987B
:1002F0005946C0F14002504600F094F906460D46BA
:1003000050465946019A00F0ACF910EB08006141E3
:10031000002487EA115284EAE7731A4340D0009A16
:1003200062B3019A012A4FEA075215DC001B61EB08
:1003300002014FF0004202EA0752CDE90042001CE0
:1003400041F5801132462B4600F0ACF903B0BDE810
:10035000F08F40462146F9E7001B61EB0201001CCB
:1003600041F5801300185B412018A2F5001747EBF8
:10037000030140EAD570B6196D4111E06D084FEAEE
:10038000360645EAC0754FEA0752001B61EB0201D1
:10039000001C41F5801149084FEA30000019514115
:1003A00032462B4603B0BDE8F04F00F06CB9009820
:1003B000012240000023D0EB020263EBE0730098BF
:1003C00021464FEAE074B8EB000061EB0401E9E775
:1003D00083F000435BE781F0004158E72DE9FE4FD1
:1003E00081EA030404F0004421F0004100944FF03E
:1003F000000B23F0004350EA01045ED052EA0304EC
:100400005BD0C3F30A54C1F30A552C44A4F2F3346D
:100410000194A0FB0254C1F3130141F48011C3F312
:10042000130343F4801301FB024400FB034E840AD0
:10043000970A44EA815447EA8357A4FB0768029568
:100440008D0A05FB07854FEA932C04FB0C54270506
:10045000029D4FEA065847EA1637B5EB08056EEBE2
:10046000070C870E920E47EA811742EA8312A7FB18
:100470000201B6EB0B0164EB00042B0D43EA0C33D5
:100480005E1844EB1C50DA465146E7FB0201C5F307
:1004900013044FEA0B3343EA14534FEA0432019C2E
:1004A00043EA0603A4F10C040294009CCDE900B4D5
:1004B00000F0F8F803B0BDE8F08F00200146F9E73E
:1004C0002DE9F04D81EA030404F0004B21F00045D2
:1004D00014464FF0000A23F0004150EA050220D0F4
:1004E00054EA01021DD0C5F30A570246C5F31303AF
:1004F000C1F31300C1F30A5640F4801543F480138E
:10050000A7EB0608101BD64608F2FD3873EB050072
:1005100002D308F1010801E092185B41B8F1000F25
:1005200003DA00200146BDE8F08D00204FF4801171
:10053000064684460EE0171B73EB050705D3121B16
:1005400063EB050306434CEA010C49084FEA30000F
:1005500092185B4150EA0107EDD152EA030012D034
:1005600082EA040083EA0501084305D0101BAB4171
:1005700006D20122002306E000224FF0004302E0F1
:100580006FF0010253101AEB06004CEB085110EB10
:100590000A0041EB0B01BDE8F04D00F074B8C1F367
:1005A0000A52C1F3130140F2FF3341F480119A4221
:1005B00002DA00200146704740F233439A42A2F229
:1005C000334202DC524200F03CB800F02BB800008D
:1005D00030B5041E71F1000404DB4FF000444042CA
:1005E00064EB0101141E73F1000405DB1C464FF09F
:1005F0000043524263EB0403994208BF904230BD6E
:10060000064C074D06E0E06840F0010394E807005F
:1006100098471034AC42F6D3FFF78EFD74220008E1
:1006200094220008202A04DB203A00FA02F100207C
:1006300070479140C2F1200320FA03F31943904020
:100640007047202A04DB203A21FA02F0002170478B
:1006500021FA02F3D040C2F120029140084319462A
:100660007047202A06DBCB17203A41FA02F043EA12
:10067000E07306E041FA02F3D040C2F1200291405B
:1006800008431946704710B5141E73F1000408DAC8
:10069000401C41F1000192185B411A4301D120F046
:1006A000010010BD2DE9F04D92469B4611B1B1FA03
:1006B00081F202E0B0FA80F220329046FFF7B2FFFA
:1006C00004460F4640EA0A0041EA0B0153465A46E7
:1006D000084313D0114653EA010019D0C8F1400273
:1006E0005046FFF7AEFF05460E4650465946424675
:1006F000FFF798FF084305D0012004E02046394663
:10070000BDE8F08D0020054346EAE0762C433743F0
:100710000A986305E40AA0EB08000022FD0A44EAF7
:1007200047540A3002D500200146E9E701051019B7
:100730006941DDE9084500196941BDE8F04DA2E7CE
:100740002DE9F04102460025002600200023002468
:10075000002791F803C00CF00F0591F803C00CF0CE
:10076000100CBCF1000F03D091F802C04CEA050553
:1007700091F800C0BCF1000F31D0146800202BE0CC
:100780004FF0010C0CFA00F3B1F800C00CEA0306BC
:100790009E4220D183004FF00F0C0CFA03F7BC43AC
:1007A00005FA03FC4CEA040491F803C0BCF1280FDD
:1007B00006D14FF0010C0CFA00FCC2F814C00AE09C
:1007C00091F803C0BCF1480F05D14FF0010C0CFAB1
:1007D00000FCC2F810C0401C0828D1D31460B1F846
:1007E00000C0BCF1FF0F34DD546800202EE000F1A2
:1007F000080C4FF0010808FA0CF3B1F800C00CEA3D
:1008000003069E4221D183004FF00F0C0CFA03F730
:10081000BC4305FA03FC4CEA040491F803C0BCF1A4
:10082000280F05D100F1080C08FA0CF8C2F8148062
:1008300091F803C0BCF1480F07D100F1080C4FF04C
:10084000010808FA0CF8C2F81080401C0828CED322
:100850005460BDE8F08101617047000008B50121D6
:10086000482000F083F82020ADF8000010208DF81B
:10087000030003208DF8020069460948FFF760FF76
:1008800020210748FFF7E7FF2020ADF80000694668
:100890000448FFF755FF20210248FFF7DCFF08BDA1
:1008A000000C01400018014070B5002100230F2208
:1008B000C47804B3154C246804F4E064C4F5E0641F
:1008C000210AC1F10403CA40447804FA03F1847890
:1008D0001440214309010E4C0678A155047804F018
:1008E0001F050124AC4005786D11AD0005F1E02530
:1008F000C5F8004109E0047804F01F050124AC406C
:10090000044D0678761145F8264070BD0CED00E0E8
:1009100000E400E080E100E002490143024A116086
:10092000704700000000FA050CED00E029B1064A0E
:10093000D2690243044BDA6104E0034AD26982437C
:10094000014BDA61704700000010024029B1064AED
:1009500012690243044B1A6104E0034A126982439C
:10096000014B1A61704700000010024029B1064A8D
:1009700092690243044B9A6104E0034A92698243FC
:10098000014B9A61704700000010024029B1064AED
:10099000D2680243044BDA6004E0034AD26882431F
:1009A000014BDA60704700000010024030B50021B2
:1009B0000022002400232D4D6D6805F00C0121B1AB
:1009C000042905D0082923D105E0294D056022E03E
:1009D000274D05601FE0254D6D6805F47012234D0D
:1009E0006D6805F48034022505EB92421CB9214D57
:1009F000554305600BE01D4D6D6805F400351DB1D4
:100A00001C4D5543056002E0194D5543056002E059
:100A1000174D056000BF00BF144D6D6805F0F00173
:100A20000909154D6B5C0568DD4045600F4D6D682B
:100A300005F4E061090A104D6B5C4568DD40856096
:100A40000A4D6D6805F46051C90A0B4D6B5C456831
:100A5000DD40C560054D6D6805F44041890B074DCB
:100A60006B5CC568B5FBF3F5056130BD0010024055
:100A700000127A0000093D0014000020240000202C
:100A800021B1028842F04002028004E002884FF661
:100A9000BF731A40028070470246002013890B4042
:100AA0000BB1012000E000207047014688897047A3
:100AB0008181704710B50022028802F441520B88F0
:100AC0004C8823438C882343CC8823430C892343BD
:100AD0004C8923438C892343CC8923431A430280C6
:100AE000838B4FF2FF74234083830B8A038210BDF4
:100AF00010B500F001F810BD0CB500200190009079
:100B00003348006840F480303149086000BF304805
:100B1000006800F4003000900198401C019000989B
:100B200018B90198B0F5A06FF1D12948006800F418
:100B3000003010B10120009001E0002000900098EA
:100B4000012843D12348006840F010002149086083
:100B50000846006820F0030008600846006840F07E
:100B6000020008601A484068194948600846406811
:100B700048600846406840F4806048600846406825
:100B800020F47C1048600846406840F4E810486053
:100B90000846006840F08070086000BF0C4800689C
:100BA00000F000700028F9D00948406820F00300E8
:100BB000074948600846406840F00200486000BFAE
:100BC0000348406800F00C000828F9D10CBD000073
:100BD0000010024000200240042808D14FF0E0211C
:100BE000096941F004014FF0E022116107E04FF084
:100BF000E021096921F004014FF0E0221161704702
:100C000010B501F077FA012801D001F059FA10BDB2
:100C100010B51348006840F001001149086008460B
:100C20004068104908400E494860084600680E496F
:100C300008400B4908600846006820F480200860DE
:100C40000846406820F4FE0048604FF41F008860AA
:100C5000FFF74EFF4FF000600449086010BD000030
:100C6000001002400000FFF8FFFFF6FE08ED00E074
:100C700010B50121074800F04DF950B10021054899
:100C800000F048F80121034800F041F80120024932
:100C9000087010BD000400406E0000207FB50446BF
:100CA0000D4601210220FFF741FE164800F03EF8F4
:100CB0004720ADF804000020ADF80A00ADF80600AA
:100CC00001A9104800F040F901210E4800F01CF87D
:100CD000012211460B4800F02EF91D208DF800006E
:100CE00000208DF8010003208DF8020001208DF80E
:100CF00003006846FFF7D8FD0121024800F00AF81A
:100D00007FBD000000040040CA4302827047CA430E
:100D10000282704721B1028842F00102028004E0A1
:100D200002884FF6FE731A400280704710B50446E1
:100D30006848844208D10121C014FFF727FE002132
:100D4000E014FFF723FEC4E0B4F1804F08D1012185
:100D50000846FFF7FBFD00210120FFF7F7FDB8E093
:100D60005D48844208D101210220FFF7EFFD0021F8
:100D70000220FFF7EBFDACE05848844208D1012186
:100D80000420FFF7E3FD00210420FFF7DFFDA0E0D2
:100D90005348844208D101210820FFF7D7FD0021E4
:100DA0000820FFF7D3FD94E04E48844208D101218A
:100DB0001020FFF7CBFD00211020FFF7C7FD88E0D2
:100DC0004948844208D101212020FFF7BFFD0021BE
:100DD0002020FFF7BBFD7CE04448844208D101217C
:100DE0004014FFF7D3FD00216014FFF7CFFD70E042
:100DF0003F48844209D10121C804FFF7C7FD002103
:100E00004FF40020FFF7C2FD63E03A48844209D165
:100E100001210805FFF7BAFD00214FF48010FFF70C
:100E2000B5FD56E03448844209D101214805FFF759
:100E3000ADFD00214FF40010FFF7A8FD49E02F4859
:100E4000844208D101214020FFF780FD002140208D
:100E5000FFF77CFD3DE02A48844208D10121802033
:100E6000FFF774FD00218020FFF770FD31E0254879
:100E7000844208D101218015FFF768FD0021A015EB
:100E8000FFF764FD25E02048844209D101210804D0
:100E9000FFF77CFD00214FF48030FFF777FD18E06D
:100EA0001A48844209D101214804FFF76FFD00214F
:100EB0004FF40030FFF76AFD0BE01548844208D17B
:100EC00001218804FFF762FD00214FF48020FFF725
:100ED0005DFD10BD002C01400004004000080040F2
:100EE000000C00400010004000140040003401409D
:100EF000004C0140005001400054014000180040E7
:100F0000001C00400020004000400140004401401F
:100F10000048014030B50246002000230024158A15
:100F200005EA0103958905EA010413B10CB101201A
:100F300000E0002030BD1AB183890B43838102E0B9
:100F400083898B4383817047002202881D4B98421E
:100F50000ED01D4B98420BD0B0F1804F08D01B4BE8
:100F6000984205D01A4B984202D01A4B984204D1AD
:100F70004FF68F731A404B881A43174B984207D08D
:100F8000164B984204D04FF6FF431A40CB881A43C1
:100F900002808B8883850B8803850A4B98420BD08F
:100FA000094B984208D00E4B984205D00D4B984201
:100FB00002D00D4B984201D10B7A03860123838224
:100FC00070470000002C0140003401400004004044
:100FD00000080040000C00400010004000140040D9
:100FE00000400140004401400048014010B540F27B
:100FF00025511D4800F04AF810B31B4800F002F9D3
:10100000C4B21A48008800F40040C8B917480088E4
:1010100000F4804060B10A2C03D0002013490880FE
:1010200020E01248008840F400401049088019E090
:101030000D2C06D10D48008840F480400B490880F3
:1010400010E00A480088C0F30D0009490C54074815
:101050000088401C0549088008460088C72801DD33
:101060000020088010BD0000003801406C00002006
:101070005403002021B1828942F40052828104E0AD
:1010800082894DF6FF731A408281704770B502461F
:10109000002400230025002040F66A16B14200D14A
:1010A00000BFC1F3421501F01F03012606FA03F346
:1010B000012D02D19689334006E0022D02D1168A15
:1010C000334001E0968A33400C12012606FA04F4FC
:1010D0001688344013B10CB1012000E0002070BD2F
:1010E000F0B50346002400260025002040F66A17CC
:1010F000B94200D100BF1846C1F3421401F01F06E7
:10110000012707FA06F5012C01D10C3004E0022C6E
:1011100001D1103000E014301AB107682F43076086
:1011200002E00768AF430760F0BD00002DE9F0471B
:1011300086B005460E460024A24600BFA146002701
:10114000B08900B100BF2F462C8A4CF6FF700440D6
:10115000F08804432C82AC894EF6F3100440B0882A
:1011600031890843718908430443AC81AC8A4FF646
:10117000FF400440B0890443AC8201A8FFF716FC8D
:101180001F48874202D1DDF810A001E0DDF80CA075
:10119000A88900F4004040B10AEBCA0000EB0A1035
:1011A00031684900B0FBF1F807E00AEBCA0000EB38
:1011B0000A1031688900B0FBF1F86420B8FBF0F048
:1011C00004012009642101FB1089A88900F4004072
:1011D00040B1322000EBC900B0FBF1F000F0070095
:1011E000044308E0322000EB09106421B0FBF1F069
:1011F00000F00F0004432C8106B0BDE8F08700002A
:101200000038014001468888C0F30800704700009C
:101210000FB4054B10B503A9044A029800F0DAF8A0
:1012200010BC5DF814FB0000611B00086800002082
:1012300002E008C8121F08C1002AFAD1704770479F
:10124000002001E001C1121F002AFBD170470000FD
:101250002DE9FF5F82B00021DDE90430020DDDF8E9
:1012600040B0034318D044F61050A2F2FF3242437C
:101270001514119801281FD0A5EB0B00401C5FEA44
:10128000000A4FF000064E4FDFF83891B046504646
:1012900015D5CAF1000413E0119801244AA30128CE
:1012A00001D16FEA0B010298119AC0E90031C0E93F
:1012B000024206B0BDE8F09FCBF10000DFE7044634
:1012C0000021404A491842EB0450CDE9001012E0D9
:1012D000E00707D032463B4640464946FFF77EF8D6
:1012E0008046894632463B4610461946FFF776F857
:1012F00006460F466410002CEAD1DDE90401DDE961
:101300000023BAF1000F06DAFFF768F842464B46B1
:10131000FFF764F805E0FFF7D3F842464B46FFF7C6
:10132000CFF804460E460022284BFFF751F903D8A8
:101330004FF0FF30014607E00022254B20463146A2
:10134000FEF7A5FFFFF72BF9102409E0002C0ADBBC
:101350000A220023FEF76AFF039B30321A55641EEF
:1013600050EA0102F2D1641C039AC4F1110314443F
:10137000119A012A03D0012208430DD10AE0084343
:1013800004D000204FF0110B119072E7A3EB0B0576
:101390006D1E0DE05B4504DD4FF0000205F1010517
:1013A00004E003DA4FF00002A5F10105002AECD0B9
:1013B00002981199C0E90231C0E9004579E70000BF
:1013C000000014400000F03F300000000000F04337
:1013D0000000E03F2DE9FF4F95B09B468946064649
:1013E00000250FE2252877D100242746F84A01215D
:1013F000059400E0044316F8013F203B01FA03F096
:101400001042F7D130782A2811D06FF02F033078AE
:10141000A0F13002092A16D8059A44F0020402EB22
:10142000820203EB42021044761C0590EFE759F864
:10143000042B0592002A03DA504244F4005405902C
:1014400044F00204761C30782E2816D116F8010FCD
:1014500044F004042A280DD06FF02F023078A0F158
:101460003003092B09D807EB870302EB4303C718A6
:10147000761CF3E759F8047B761C30786C280FD083
:1014800006DC4C2817D068280DD06A2814D104E057
:10149000742810D07A280FD10DE044F400140AE02B
:1014A00044F4801401E044F440147278824202D182
:1014B00004F58014761C761C307866280BD013DC7B
:1014C000582877D009DC002875D04528F6D0462862
:1014D000F4D047281AD19DE118E0632835D064285C
:1014E00079D0652812D195E1702873D008DC67287F
:1014F000F1D069286FD06E280DD06F2806D1B5E0E5
:1015000073282CD0752875D0782874D05A4617992E
:1015100090476D1C75E1C4F30250022809D00328DE
:101520000DD0D9F8001004280DD00D6009F1040980
:1015300067E1D9F80010EA17C1E90052F6E7D9F8D7
:1015400000100D80F2E70D70F0E719F8041B8DF81C
:10155000001000208DF80100EA46012003E059F850
:1015600004AB4FF0FF3061074FF0000102D40DE0F3
:1015700008F101018846B9420FDA8045F8DB1AF814
:1015800008100029F4D108E008F1010188468142E1
:10159000FADB1AF808100029F6D105985B46A0EB93
:1015A000080721463846179A00F094FA284400EBC1
:1015B000080507E04DE029E10DE01AF8010B5A4655
:1015C00017999047B8F10108F7D25B462146384693
:1015D000179A13E142E00A220092C4F302524FF03C
:1015E000000A022A08D059F804CB032A4FEAEC710A
:1015F0000AD00DE029E02AE009F1070121F00702F5
:10160000F2E802C1914609E00FFA8CFC4FEAEC7156
:10161000042A03D14FFA8CFC4FEAEC71002907DA57
:101620000A460021DCF1000C61EB02012D2202E0F0
:10163000220504D52B228DF80420012203E0E207C5
:1016400001D02022F7E7904659E00A2102E010225B
:101650000DE010214FF0000A00910BE010224FF036
:10166000000A44F004040827009203E008224FF027
:10167000000A0092C4F30252022A05D059F804CBA2
:101680000021032A08D009E009F1070121F007022F
:10169000F2E802C1914605E01FFA8CFC042A01D150
:1016A0000CF0FF0C4FF00008220728D5702806D058
:1016B000009B83F0100353EA0A0305D00EE040229A
:1016C0008DF80420012208E05CEA010206D03022F5
:1016D0008DF804208DF8050002229046009B83F0CF
:1016E000080353EA0A030AD15CEA010201D1620746
:1016F00005D530228DF804204FF001087F1E5828B0
:1017000004D034A003900EA802900DE036A0F9E7B3
:1017100053466046009AFEF789FD84460398825C32
:101720000298401E029002705CEA0100F0D102981B
:1017300006A9081A00F1200A600702D524F48034B3
:1017400000E00127574502DDA7EB0A0000E000207A
:1017500000EB0A01009005984144401A0590E0030F
:1017600006D45B462146179A059800F0B3F9054464
:10177000002706E001A85A46C05D179990476D1CE6
:101780007F1C4745F6DBE0030CD55B462146179AE4
:10179000059800F09FF9054404E030205A46179957
:1017A00090476D1C0099481E00900029F5DC08E068
:1017B000029802995A460078491C0291179990475D
:1017C0006D1CBAF10001AAF1010AF1DC65E100002B
:1017D0000928010030313233343536373839616207
:1017E00063646566000000003031323334353637CB
:1017F00038394142434445460000000000F058F9A2
:101800000544761C307800287FF4ECAD19B02846EA
:10181000BDE8F08F620700D4062709F1070222F025
:10182000070CFCE80223E14603F000485FEA080CDD
:1018300002D00FF2702C0DE05FEA045C02D50FF2CB
:10184000682C07E05FEAC47C02D00FF2602C01E054
:10185000AFF2700C4FF0FF3823F00043CDF850C0CA
:1018600065280CD006DC452809D046281DD047281D
:101870003DD13DE0662818D067287ED138E00021B0
:10188000112F01DB112000E0781CCDE9000106A931
:101890000EA8FFF7DDFCDDE90F010E9A0391002190
:1018A000009207F1010A04914DE04FF000400097CB
:1018B000CDE9011006A90EA8FFF7CAFCDDE90F0269
:1018C00003920E9B11990022DDF80CA00093049264
:1018D00011B9791C00EB010AB7EB0A0004D4C0F17E
:1018E000FF3007F1010A0490AAEB0700019044E0E1
:1018F000012F00DA01270021112F01DD112000E066
:101900003846CDE9000106A90EA8FFF7A1FCDDE9E4
:101910000F010E9A0391002104910092BA4621070B
:101920000CD40399514500DA8A46BAF1010F05DD5E
:10193000009AAAF10101515C302908D0B84202DABC
:1019400010F1040F06DA0121CDE9011015E0AAF12A
:101950000101E9E7002805DC049901440491AAEBA0
:10196000000102E0411C514500DD8A460499401AFD
:10197000401C01904FF000400290200704D40198D1
:10198000504501DBCDF8048000208DF84F0002980F
:101990000DF14F07B0F1004F25D02B200E9002988B
:1019A0004FF0020800280CDA404202902D200E90E1
:1019B00007E00A210298FEF723FC3031029007F875
:1019C000011DB8F10001A8F10108F2DC029800281D
:1019D000EFD1791E0E980870307800F0200040F0AA
:1019E000450007F8020D12A8C01B00F10708149863
:1019F000007800B1012000EB0A01019801EBE071D1
:101A000005984144401A401E0590E00306D45B4609
:101A10002146179A059800F05DF80544149800785F
:101A200018B15A46179990476D1CE00324D55B46C0
:101A30002146179A059800F04DF805441CE00498DB
:101A4000002807DBDDE90301884203DD0098405CE4
:101A5000179901E0179930205A469047049805F1EC
:101A60000105401C04900198401E019004D12E20D5
:101A70005A46179990476D1CBAF10001AAF1010A64
:101A8000DDDC05E017F8010B5A46179990476D1CED
:101A9000B8F10001A8F10108F4DC5B462146179A71
:101AA0000598ABE62D0000002B0000002000000090
:101AB0002DE9F041044600251E461746880404D44B
:101AC00005E039462020B0476D1C641EF9D5284634
:101AD000BDE8F0812DE9F041044600251E46904600
:101AE000C80301D5302700E02027880404D505E08D
:101AF00041463846B0476D1C641EF9D52846BDE8FE
:101B0000F081000010B50420FFF766F81048006867
:101B10001049B0FBF1F0104908700D4800680D49FC
:101B2000B0FBF1F442F2107044430A200B490880E4
:101B30004FF0E020006940F002004FF0E021086122
:101B400008464461006940F00100086110BD0000D2
:101B50000000002040420F006400002066000020CA
:101B600000BF054A128802F04002002AF9D0C2B232
:101B7000014B1B1D1A8070470038014008B5012138
:101B80004420FEF7F3FE0120ADF8000028208DF878
:101B9000030069460648FEF7D3FD1820ADF80000A3
:101BA00048208DF8030069460248FEF7C9FD08BDCC
:101BB000000801400018014010B54FF44070FEF7D6
:101BC000ABFEFFF79FFF4FF4E13000F0B5F9FEF7F1
:101BD00045FEFFF7D3FF47210120FFF75FF800F034
:101BE0003FF8002010BD70B50024002500BF19E0AB
:101BF00004F1B000C1B2002000F0DCF8002108467A
:101C000000F0D8F81021002000F0D4F8002505E0FD
:101C10000021012000F0CEF8681CC5B2802DF7DB52
:101C2000601CC4B2082CE3DB70BD000008B50121C4
:101C30000420FEF79BFE1A20ADF8000010208DF85E
:101C4000030003208DF8020069460448FEF778FD82
:101C50001A210248FEF7FFFD08BD00000008014000
:101C600010B500F0F7F8012040490860404800F046
:101C70004DF900203F49C1F890013D4800F046F978
:101C800001203A490860AE21002000F093F80021BD
:101C9000084600F08FF81021002000F08BF840215A
:101CA000002000F087F88121002000F083F8CF2188
:101CB000002000F07FF8A121002000F07BF8C8216F
:101CC000002000F077F8A821002000F073F83F21F1
:101CD000002000F06FF8D321002000F06BF8002105
:101CE000084600F067F8D521002000F063F8802155
:101CF000002000F05FF8D921002000F05BF8F1210E
:101D0000002000F057F8DA21002000F053F81221EB
:101D1000002000F04FF8DB21002000F04BF84021BC
:101D2000002000F047F82021002000F043F80221B5
:101D3000002000F03FF88D21002000F03BF8142136
:101D4000002000F037F8A421002000F033F8A7218C
:101D5000002000F02FF8AF21002000F02BF8FFF753
:101D600042FF0021084600F007F810BD9001214213
:101D7000400D03000000214270B504460D4605F1F8
:101D8000B000C1B2002000F015F8102040EA141194
:101D9000002000F00FF804F00F0040F001010020D7
:101DA00000F008F870BD10B50446204600F084F835
:101DB00010BD000070B504460D4600200A490860B9
:101DC000012C04D1012008490831086004E01CB945
:101DD00000200549083108602846FFF7E4FF01208C
:101DE0000149086070BD0000840121420A49096868
:101DF000096809B9012100E0002121B14FF0FF314C
:101E0000064A116006E004490968C968C868034ABF
:101E100041681160704700002C000020580000202D
:101E200008B501210420FEF7A1FDA020ADF80000B7
:101E300018208DF8030003208DF80200694604483D
:101E4000FEF77EFCA0210248FEF705FD08BD00005C
:101E50000008014000B585B0FFF7E2FFFFF7E6FE9E
:101E600001210803FEF782FD0020ADF800004FF4C9
:101E70008270ADF802000020ADF80400ADF8060055
:101E8000ADF808004FF40070ADF80A003820ADF846
:101E90000C000020ADF80E000720ADF810006946D8
:101EA0000448FEF707FE01210248FEF7E9FD05B0F0
:101EB00000BD00000030014070B50546002405E07B
:101EC000601CC4B2C82C01DD002070BD02210E4888
:101ED000FEF7E2FD0028F3D029460B48FEF7E8FDA7
:101EE000002405E0601CC4B2C82C01DD0020ECE732
:101EF00001210548FEF7D0FD0028F3D00248FEF787
:101F0000D4FDC0B2E1E700000030014010B5044646
:101F100007490C80012106482C38FEF7FBFE00BF64
:101F2000044800780028FBD000200249087010BD4A
:101F30002C0400406E00002010B586B0044601213C
:101F400044F20400FEF712FD4FF40070ADF81400E7
:101F500003208DF8160018208DF8170005A91C48DD
:101F6000FEF7EEFB4FF48060ADF8140004208DF80E
:101F7000170005A91648FEF7E3FB25208DF80000A1
:101F800003208DF801008DF8020001208DF8030078
:101F90006846FEF789FC01940020ADF80800ADF812
:101FA0000A00ADF80C00ADF810000C20ADF80E00E2
:101FB00001A90848FFF7BAF8012240F22551054867
:101FC000FFF78EF801210348FFF754F806B010BD63
:101FD000000801400038014001460A69D1E901309A
:101FE0009860D1E9010358605068884201D188683F
:101FF0005060002008611068401E10601068704733
:1020000042684A6093688B60936859609160086188
:1020100003685B1C0360704710B51B48006818B16B
:1020200001201A4908602DE000201849086018486E
:102030000068B0FA80F0C0F11F0404EB8400154979
:1020400051F8200008B1012000E0002028B940F636
:10205000F62211A115A0FFF7DBF804EB84010D4A6D
:1020600002EB810041684968416000F10801426863
:102070008A4202D14168496841604168C9680F4A93
:10208000116000BF10BD0000600000204C00002067
:1020900040000020700000204672656552544F5386
:1020A0005C7461736B732E63000000004572726F85
:1020B000723A25732C25640D0A00000028000020C8
:1020C00010B500BF502080F31188BFF34F8FBFF3CE
:1020D0006F8F00BF00F01EF818B14FF08050044918
:1020E000086000BF002080F3118800BF10BD000011
:1020F00004ED00E00549096809B9012005E004493B
:10210000096809B9022000E000207047440000205F
:10211000600000202DE9F0414FF0000841480068C0
:10212000002872D140480068451C3F480560EDB961
:102130003E480068006808B9012000E0002028B986
:1021400040F6D9123AA13FA0FFF762F83748076876
:1021500040480068354908603E4807603E480068CE
:10216000401C3D490860FFF741FE00BF3B48006846
:1021700085423CD300BF2D480068006808B90120A3
:1021800000E0002020B14FF0FF30344908602DE01E
:1021900026480068C068C4686668B54202D22F4805
:1021A000066023E0201DFFF717FFA06A18B104F1B5
:1021B0001800FFF711FF94F82C10012088402849DF
:1021C0000968084326490860E16A01EB8101254A54
:1021D00002EB8100211DFFF713FF2349E06A096824
:1021E000C96A8842C7D34FF00108C4E700BF1E4840
:1021F0000068C06A00EB80001A4951F820000128ED
:1022000001D94FF0010805E0FFE718480068401CBD
:10221000164908601648006808B14FF001084046AA
:10222000BDE8F081600000203C0000202C00002070
:102230004672656552544F535C7461736B732E63C1
:10224000000000004572726F723A25732C25640DF0
:102250000A0000003000002050000020580000203C
:1022600040000020700000202800002048000020CE
:102270004C000020942200080000002070000000A4
:10228000301200080423000870000020B00700008E
:102290004012000800A24A040000000000000000F4
:1022A00001020304060708090000000001020304FC
:1022B00001020304060708090204060800000000E2
:1022C000000000000000000000000000000000000E
:1022D00000000000000000000000000000000000FE
:1022E00000000000000000000000000000000000EE
:1022F00000000000000000000000000000000000DE
:0423000000000000D9
:0400000508000131BD
:00000001FF
