:020000040800F2
:1000000000590020DD010008E5010008E7010008B3
:10001000E9010008EB010008ED0100080000000004
:100020000000000000000000000000004501000882
:10003000F1010008000000008901000871100008AB
:10004000F7010008F7010008F7010008F7010008B0
:10005000F7010008F7010008F7010008F7010008A0
:10006000F7010008F7010008F7010008F701000890
:10007000F7010008F7010008F7010008F701000880
:10008000F7010008F7010008F7010008F701000870
:10009000F7010008F7010008F7010008F701000860
:1000A000F7010008F7010008F7010008F701000850
:1000B000F7010008E1100008F7010008F701000847
:1000C000F7010008F7010008F7010008F701000830
:1000D000F70100085D140008F7010008F7010008A7
:1000E000F7010008F7010008F7010008F701000810
:1000F000F7010008F7010008F7010008F701000800
:10010000F7010008F7010008F7010008F7010008EF
:10011000F7010008F7010008F7010008F7010008DF
:10012000F7010008F7010008F7010008F7010008CF
:10013000DFF80CD000F064FB0048004729200008DD
:1001400000590020224B19680868B0E8F00F80F3CE
:100150000988BFF36F8F4FF0000080F311884EF0D5
:100160000D0E70470000000006480068006880F32C
:10017000088862B661B6BFF34F8FBFF36F8F00DFA1
:1001800000BF00BF08ED00E0EFF30980BFF36F8F01
:100190000F4B1A6820E9F00F106008B54FF05000BF
:1001A00080F31188BFF34F8FBFF36F8F03F00AFA0C
:1001B0004FF0000080F31188BDE808401968086816
:1001C000B0E8F00F80F30988BFF36F8F704700BF6E
:1001D00028000020EFF305807047000006488047A4
:1001E00006480047FEE7FEE7FEE7FEE7FEE7FEE71C
:1001F000FEE7FEE7FEE7FEE7811000083101000898
:1002000040EA01039B0703D009E008C9121F08C098
:10021000042AFAD203E011F8013B00F8013B521E18
:10022000F9D27047D2B201E000F8012B491EFBD28F
:1002300070470022F6E710B513460A4604461946F1
:10024000FFF7F0FF204610BD80EA010210B502F072
:100250000043400022D04A001FD0010E01EB126182
:10026000C0F35600C2F3560240F4000042F400020C
:10027000A0FB022000047F39140400D0401C50EA87
:10028000124001D44000491EC2B20C0604EBD0104B
:10029000401C4008802A02D003E0002010BD20F05E
:1002A0000100002900DA0020184310BD30B480EAB4
:1002B000010202F0004530F0004221F0004013D06E
:1002C00090B1C30DD40DC2F31601C0F31600E41AA9
:1002D00041F4000140F400027D34914201D3641CDA
:1002E00000E04900002C02DA30BC002070474FF4D7
:1002F00000000023914201D3891A034340084FEACA
:100300004101F7D151B1914202D14FF0004105E0D6
:1003100002D24FF0010101E06FF0010103EBC45084
:10032000284430BC00F07CB8C10F80EAE07008447B
:10033000CA079623002100F07CB800F0004220F0AC
:100340000040C10DC0F3160040F400007F2901DA1F
:1003500000207047962903DCC1F19601C84001E0F6
:1003600096398840002AF4D04042704700F000429D
:1003700030F000400AD0C10D01F56071C0F31600E5
:1003800042EA0151C208400711437047002001466C
:10039000704730B50B46014600202022012409E0B9
:1003A00021FA02F59D4205D303FA02F5491B04FA2E
:1003B00002F52844151EA2F10102F1DC30BD2DE941
:1003C000F05F0546002092469B46884606468146D9
:1003D00040241BE0284641464746224600F031FAB9
:1003E00053465A46C01A914110D311461846224628
:1003F00000F018FA2D1A67EB01084F46224601203B
:10040000002100F00FFA17EB00094E41201EA4F165
:100410000104DFDC484631462A464346BDE8F09FEA
:100420000029A8BF7047401C490008BF20F0010008
:10043000704710B4B0FA80FC00FA0CF050EA0104E6
:1004400004BF10BC704749B1CCF1200421FA04F478
:1004500011FA0CF118BF012121430843A3EB0C0151
:10046000CB1D4FEA00614FEA102042BF002010BCB4
:10047000704700EBC35010440029A4BF10BC704764
:10048000401C490008BF20F0010010BC70472DE956
:10049000FE4F804681EA0300C00F0C46009021F019
:1004A000004123F00045B8EB0200A94105D24046C7
:1004B000214690461C460B46024623F0004010435E
:1004C00047D0270DC7F30A00C3F30A510290401A20
:1004D000019040286BDAC3F3130040F4801B0098AE
:1004E000924620B10023D2EB030A63EB0B0B019879
:1004F0005946C0F14002504600F094F906460D46B8
:1005000050465946019A00F0ACF910EB08006141E1
:10051000002487EA115284EAE7731A4340D0009A14
:1005200062B3019A012A4FEA075215DC001B61EB06
:1005300002014FF0004202EA0752CDE90042001CDE
:1005400041F5801132462B4600F0ACF903B0BDE80E
:10055000F08F40462146F9E7001B61EB0201001CC9
:1005600041F5801300185B412018A2F5001747EBF6
:10057000030140EAD570B6196D4111E06D084FEAEC
:10058000360645EAC0754FEA0752001B61EB0201CF
:10059000001C41F5801149084FEA30000019514113
:1005A00032462B4603B0BDE8F04F00F06CB900981E
:1005B000012240000023D0EB020263EBE0730098BD
:1005C00021464FEAE074B8EB000061EB0401E9E773
:1005D00083F000435BE781F0004158E72DE9FE4FCF
:1005E00081EA030404F0004421F0004100944FF03C
:1005F000000B23F0004350EA01045ED052EA0304EA
:100600005BD0C3F30A54C1F30A552C44A4F2F3346B
:100610000194A0FB0254C1F3130141F48011C3F310
:10062000130343F4801301FB024400FB034E840ACE
:10063000970A44EA815447EA8357A4FB0768029566
:100640008D0A05FB07854FEA932C04FB0C54270504
:10065000029D4FEA065847EA1637B5EB08056EEBE0
:10066000070C870E920E47EA811742EA8312A7FB16
:100670000201B6EB0B0164EB00042B0D43EA0C33D3
:100680005E1844EB1C50DA465146E7FB0201C5F305
:1006900013044FEA0B3343EA14534FEA0432019C2C
:1006A00043EA0603A4F10C040294009CCDE900B4D3
:1006B00000F0F8F803B0BDE8F08F00200146F9E73C
:1006C0002DE9F04D81EA030404F0004B21F00045D0
:1006D00014464FF0000A23F0004150EA050220D0F2
:1006E00054EA01021DD0C5F30A570246C5F31303AD
:1006F000C1F31300C1F30A5640F4801543F480138C
:10070000A7EB0608101BD64608F2FD3873EB050070
:1007100002D308F1010801E092185B41B8F1000F23
:1007200003DA00200146BDE8F08D00204FF480116F
:10073000064684460EE0171B73EB050705D3121B14
:1007400063EB050306434CEA010C49084FEA30000D
:1007500092185B4150EA0107EDD152EA030012D032
:1007600082EA040083EA0501084305D0101BAB416F
:1007700006D20122002306E000224FF0004302E0EF
:100780006FF0010253101AEB06004CEB085110EB0E
:100790000A0041EB0B01BDE8F04D00F074B8C1F365
:1007A0000A52C1F3130140F2FF3341F480119A421F
:1007B00002DA00200146704740F233439A42A2F227
:1007C000334202DC524200F03CB800F02BB800008B
:1007D00030B5041E71F1000404DB4FF000444042C8
:1007E00064EB0101141E73F1000405DB1C464FF09D
:1007F0000043524263EB0403994208BF904230BD6C
:10080000064C074D06E0E06840F0010394E807005D
:1008100098471034AC42F6D3FFF78EFC64430008CF
:1008200084430008202A04DB203A00FA02F1002069
:1008300070479140C2F1200320FA03F3194390401E
:100840007047202A04DB203A21FA02F00021704789
:1008500021FA02F3D040C2F1200291400843194628
:100860007047202A06DBCB17203A41FA02F043EA10
:10087000E07306E041FA02F3D040C2F12002914059
:1008800008431946704710B5141E73F1000408DAC6
:10089000401C41F1000192185B411A4301D120F044
:1008A000010010BD2DE9F04D92469B4611B1B1FA01
:1008B00081F202E0B0FA80F220329046FFF7B2FFF8
:1008C00004460F4640EA0A0041EA0B0153465A46E5
:1008D000084313D0114653EA010019D0C8F1400271
:1008E0005046FFF7AEFF05460E4650465946424673
:1008F000FFF798FF084305D0012004E02046394661
:10090000BDE8F08D0020054346EAE0762C433743EE
:100910000A986305E40AA0EB08000022FD0A44EAF5
:1009200047540A3002D500200146E9E701051019B5
:100930006941DDE9084500196941BDE8F04DA2E7CC
:100940001CB50648012100238022CDE9001004A136
:10095000064803F025FA02F0D7FD1CBDA0000020D8
:1009600073746172745F7461736B0000D12C000842
:1009700010B500241648406820F4704014494860BF
:100980000846406840F40040486004E0601CC4B27F
:10099000012002F0D3F90F48006808B1C82CF5DB3C
:1009A000C82C02DB4FF0FF3010BD002404E0601CB7
:1009B000C4B2012002F0C2F90648006808B9F02C60
:1009C000F5DBF02C02DB4FF0FF30EDE70020EBE72A
:1009D000002001402C0124422DE9F0474FF000088F
:1009E00000F0C8F800F0A4F8FFF7C2FFCC2000F038
:1009F000CDF8BE2000F0CAF800F088F8074600F0F5
:100A000085F80446072C04DDE043C4B2F843C7B2BE
:100A100001E04FF001082546280205B2E81905B2A9
:100A2000B5F5AA6F01D00C4805800B48B0F900005D
:100A3000FFF77AFC82460949FFF706FC8146FFF77B
:100A40007CFC06B2B8F1000F02D03046BDE8F0875A
:100A5000704200B2FAE70000E40000200000203FEE
:100A600008B50121080200F0F1F94FF40060ADF87B
:100A7000000010208DF8030003208DF80200694665
:100A8000064800F0BDF84FF40061044800F043F957
:100A900000F04EF8FFF76CFFC0B208BD0020014027
:100AA00010B51748406820F4704015494860084662
:100AB000406840F44050486000201249086002201D
:100AC00002F03CF901201049C1F8AC010C48406823
:100AD00020F470400A4948600846406840F40040ED
:100AE00048600C2002F02AF906488038006808B1F6
:100AF000012400E00024322002F020F9204610BD3D
:100B000000200140AC0124420000244270B50026C0
:100B1000012508E0FFF7C4FF0446E00140EA660053
:100B2000C6B2681CC5B2082DF4DD304670BD0000A9
:100B300010B50D48406820F470400B4948600846E5
:100B4000406840F44050486000200849086040F286
:100B5000EE2002F0F3F801200549C1F8AC010F20A6
:100B600002F0ECF810BD000000200140AC0124426E
:100B70000000244210B5FFF7DBFFFFF7F9FECC20A1
:100B800000F004F8442000F001F810BD70B50446F0
:100B90001848406820F4704016494860084640688C
:100BA00040F440504860012520E004F00106641044
:100BB0006EB1002010490860022002F0BFF8012049
:100BC0000E49C1F8AC013C2002F0B8F80CE000205E
:100BD000094908603C2002F0B1F801200749C1F83A
:100BE000AC01022002F0AAF8681CC5B2082DDCDDB9
:100BF00070BD000000200140AC01244200002442EE
:100C00002DE9F041024600250026002000230024A3
:100C1000002791F803C00CF00F0591F803C00CF009
:100C2000100CBCF1000F03D091F802C04CEA05058E
:100C300091F800C0BCF1000F31D0146800202BE007
:100C40004FF0010C0CFA00F3B1F800C00CEA0306F7
:100C50009E4220D183004FF00F0C0CFA03F7BC43E7
:100C600005FA03FC4CEA040491F803C0BCF1280F18
:100C700006D14FF0010C0CFA00FCC2F814C00AE0D7
:100C800091F803C0BCF1480F05D14FF0010C0CFAEC
:100C900000FCC2F810C0401C0828D1D31460B1F881
:100CA00000C0BCF1FF0F34DD546800202EE000F1DD
:100CB000080C4FF0010808FA0CF3B1F800C00CEA78
:100CC00003069E4221D183004FF00F0C0CFA03F76C
:100CD000BC4305FA03FC4CEA040491F803C0BCF1E0
:100CE000280F05D100F1080C08FA0CF8C2F814809E
:100CF00091F803C0BCF1480F07D100F1080C4FF088
:100D0000010808FA0CF8C2F81080401C0828CED35D
:100D10005460BDE8F08101617047000008B5012111
:100D2000482000F093F82020ADF8000010208DF846
:100D3000030003208DF8020069460948FFF760FFB1
:100D400020210748FFF7E7FF2020ADF800006946A3
:100D50000448FFF755FF20210248FFF7DCFF08BDDC
:100D6000000C01400018014000BF0648006808B9A7
:100D7000012000E0002003490860642002F028FA06
:100D8000F3E700009481214270B5002100230F2277
:100D9000C47804B3154C246804F4E064C4F5E0643A
:100DA000210AC1F10403CA40447804FA03F18478AB
:100DB0001440214309010E4C0678A155047804F033
:100DC0001F050124AC4005786D11AD0005F1E0254B
:100DD000C5F8004109E0047804F01F050124AC4087
:100DE000044D0678761145F8264070BD0CED00E004
:100DF00000E400E080E100E002490143024A1160A2
:100E0000704700000000FA050CED00E029B1064A29
:100E1000D2690243044BDA6104E0034AD269824397
:100E2000014BDA61704700000010024029B1064A08
:100E300012690243044B1A6104E0034A12698243B7
:100E4000014B1A61704700000010024029B1064AA8
:100E500092690243044B9A6104E0034A9269824317
:100E6000014B9A61704700000010024029B1064A08
:100E7000D2680243044BDA6004E0034AD26882433A
:100E8000014BDA60704700000010024030B50021CD
:100E90000022002400232D4D6D6805F00C0121B1C6
:100EA000042905D0082923D105E0294D056022E059
:100EB000274D05601FE0254D6D6805F47012234D28
:100EC0006D6805F48034022505EB92421CB9214D72
:100ED000554305600BE01D4D6D6805F400351DB1EF
:100EE0001C4D5543056002E0194D5543056002E075
:100EF000174D056000BF00BF144D6D6805F0F0018F
:100F00000909154D6B5C0568DD4045600F4D6D6846
:100F100005F4E061090A104D6B5C4568DD408560B1
:100F20000A4D6D6805F46051C90A0B4D6B5C45684C
:100F3000DD40C560054D6D6805F44041890B074DE6
:100F40006B5CC568B5FBF3F5056130BD0010024070
:100F500000127A0000093D00140000202400002047
:100F600010B500F001F810BD0CB500200190009004
:100F70003348006840F480303149086000BF304891
:100F8000006800F4003000900198401C0190009827
:100F900018B90198B0F5A06FF1D12948006800F4A4
:100FA000003010B10120009001E000200090009876
:100FB000012843D12348006840F01000214908600F
:100FC0000846006820F0030008600846006840F00A
:100FD000020008601A48406819494860084640689D
:100FE00048600846406840F48060486008464068B1
:100FF00020F47C1048600846406840F4E8104860DF
:101000000846006840F08070086000BF0C48006827
:1010100000F000700028F9D00948406820F0030073
:10102000074948600846406840F00200486000BF39
:101030000348406800F00C000828F9D10CBD0000FE
:101040000010024000200240042808D14FF0E021A7
:10105000096941F004014FF0E022116107E04FF00F
:10106000E021096921F004014FF0E022116170478D
:1010700010B502F0C5FE012801D002F047FB10BDFB
:1010800010B51348006840F0010011490860084697
:101090004068104908400E494860084600680E49FB
:1010A00008400B4908600846006820F4802008606A
:1010B0000846406820F4FE0048604FF41F00886036
:1010C000FFF74EFF4FF000600449086010BD0000BC
:1010D000001002400000FFF8FFFFF6FE08ED00E000
:1010E00010B50121074800F04DF950B10021054825
:1010F00000F048F80121034800F041F801200249BE
:10110000087010BD00040040E20000207FB50446D6
:101110000D4601210220FFF779FE164800F03EF847
:101120004720ADF804000020ADF80A00ADF8060035
:1011300001A9104800F040F901210E4800F01CF808
:10114000012211460B4800F02EF91D208DF80000F9
:1011500000208DF8010003208DF8020001208DF899
:1011600003006846FFF710FE0121024800F00AF86C
:101170007FBD000000040040CA4302827047CA439A
:101180000282704721B1028842F00102028004E02D
:1011900002884FF6FE731A400280704710B504466D
:1011A0006848844208D10121C014FFF75FFE002186
:1011B000E014FFF75BFEC4E0B4F1804F08D10121D9
:1011C0000846FFF733FE00210120FFF72FFEB8E0AD
:1011D0005D48844208D101210220FFF727FE00214B
:1011E0000220FFF723FEACE05848844208D10121D9
:1011F0000420FFF71BFE00210420FFF717FEA0E0EC
:101200005348844208D101210820FFF70FFE002136
:101210000820FFF70BFE94E04E48844208D10121DC
:101220001020FFF703FE00211020FFF7FFFD88E0EC
:101230004948844208D101212020FFF7F7FD002111
:101240002020FFF7F3FD7CE04448844208D10121CF
:101250004014FFF70BFE00216014FFF707FE70E05B
:101260003F48844209D10121C804FFF7FFFD002156
:101270004FF40020FFF7FAFD63E03A48844209D1B9
:1012800001210805FFF7F2FD00214FF48010FFF760
:10129000EDFD56E03448844209D101214805FFF7AD
:1012A000E5FD00214FF40010FFF7E0FD49E02F4875
:1012B000844208D101214020FFF7B8FD00214020E1
:1012C000FFF7B4FD3DE02A48844208D10121802087
:1012D000FFF7ACFD00218020FFF7A8FD31E0254895
:1012E000844208D101218015FFF7A0FD0021A0153F
:1012F000FFF79CFD25E02048844209D10121080424
:10130000FFF7B4FD00214FF48030FFF7AFFD18E088
:101310001A48844209D101214804FFF7A7FD0021A2
:101320004FF40030FFF7A2FD0BE01548844208D1CE
:1013300001218804FFF79AFD00214FF48020FFF778
:1013400095FD10BD002C0140000400400008004045
:10135000000C004000100040001400400034014028
:10136000004C014000500140005401400018004072
:10137000001C0040002000400040014000440140AB
:101380000048014030B50246002000230024158AA1
:1013900005EA0103958905EA010413B10CB10120A6
:1013A00000E0002030BD1AB183890B43838102E045
:1013B00083898B4383817047002202881D4B9842AA
:1013C0000ED01D4B98420BD0B0F1804F08D01B4B74
:1013D000984205D01A4B984202D01A4B984204D139
:1013E0004FF68F731A404B881A43174B984207D019
:1013F000164B984204D04FF6FF431A40CB881A434D
:1014000002808B8883850B8803850A4B98420BD01A
:10141000094B984208D00E4B984205D00D4B98428C
:1014200002D00D4B984201D10B7A038601238382AF
:1014300070470000002C01400034014000040040CF
:1014400000080040000C0040001000400014004064
:1014500000400140004401400048014010B540F206
:1014600025511D4800F04AF810B31B4800F002F95E
:10147000C4B21A48008800F40040C8B91748008870
:1014800000F4804060B10A2C03D00020134908808A
:1014900020E01248008840F400401049088019E01C
:1014A0000D2C06D10D48008840F480400B4908807F
:1014B00010E00A480088C0F30D0009490C540748A1
:1014C0000088401C0549088008460088C72801DDBF
:1014D0000020088010BD000000380140E00000201E
:1014E0003454002021B1828942F40052828104E008
:1014F00082894DF6FF731A408281704770B50246AB
:10150000002400230025002040F66A16B14200D1D5
:1015100000BFC1F3421501F01F03012606FA03F3D1
:10152000012D02D19689334006E0022D02D1168AA0
:10153000334001E0968A33400C12012606FA04F487
:101540001688344013B10CB1012000E0002070BDBA
:10155000F0B50346002400260025002040F66A1757
:10156000B94200D100BF1846C1F3421401F01F0672
:10157000012707FA06F5012C01D10C3004E0022CFA
:1015800001D1103000E014301AB107682F43076012
:1015900002E00768AF430760F0BD00002DE9F047A7
:1015A00086B005460E460024A24600BFA14600278D
:1015B000B08900B100BF2F462C8A4CF6FF70044062
:1015C000F08804432C82AC894EF6F3100440B088B6
:1015D00031890843718908430443AC81AC8A4FF6D2
:1015E000FF400440B0890443AC8201A8FFF74EFCE1
:1015F0001F48874202D1DDF810A001E0DDF80CA001
:10160000A88900F4004040B10AEBCA0000EB0A10C0
:1016100031684900B0FBF1F807E00AEBCA0000EBC3
:101620000A1031688900B0FBF1F86420B8FBF0F0D3
:1016300004012009642101FB1089A88900F40040FD
:1016400040B1322000EBC900B0FBF1F000F0070020
:10165000044308E0322000EB09106421B0FBF1F0F4
:1016600000F00F0004432C8106B0BDE8F0870000B5
:101670000038014001468888C0F308007047000028
:101680000FB4054B10B503A9044A029800F0DAF82C
:1016900010BC5DF814FB0000D11F0008DC00002026
:1016A00002E008C8121F08C1002AFAD1704770472B
:1016B000002001E001C1121F002AFBD17047000089
:1016C0002DE9FF5F82B00021DDE90430020DDDF875
:1016D00040B0034318D044F61050A2F2FF32424308
:1016E0001514119801281FD0A5EB0B00401C5FEAD0
:1016F000000A4FF000064E4FDFF83891B0465046D2
:1017000015D5CAF1000413E0119801244AA3012859
:1017100001D16FEA0B010298119AC0E90031C0E9CA
:10172000024206B0BDE8F09FCBF10000DFE70446BF
:101730000021404A491842EB0450CDE9001012E064
:10174000E00707D032463B4640464946FEF746FF93
:101750008046894632463B4610461946FEF73EFF14
:1017600006460F466410002CEAD1DDE90401DDE9EC
:101770000023BAF1000F06DAFEF730FF42464B466F
:10178000FEF72CFF05E0FEF79BFF42464B46FEF7B7
:1017900097FF04460E460022284BFFF719F803D89E
:1017A0004FF0FF30014607E00022254B204631462E
:1017B000FEF76DFEFEF7F3FF102409E0002C0ADBB4
:1017C0000A220023FEF7FBFD039B30321A55641EEC
:1017D00050EA0102F2D1641C039AC4F111031444CB
:1017E000119A012A03D0012208430DD10AE00843CF
:1017F00004D000204FF0110B119072E7A3EB0B0502
:101800006D1E0DE05B4504DD4FF0000205F10105A2
:1018100004E003DA4FF00002A5F10105002AECD044
:1018200002981199C0E90231C0E9004579E700004A
:10183000000014400000F03F300000000000F043C2
:101840000000E03F2DE9FF4F95B09B4689460646D4
:1018500000250FE2252877D100242746F84A0121E8
:10186000059400E0044316F8013F203B01FA03F021
:101870001042F7D130782A2811D06FF02F0330783A
:10188000A0F13002092A16D8059A44F0020402EBAE
:10189000820203EB42021044761C0590EFE759F8F0
:1018A000042B0592002A03DA504244F400540590B8
:1018B00044F00204761C30782E2816D116F8010F59
:1018C00044F004042A280DD06FF02F023078A0F1E4
:1018D0003003092B09D807EB870302EB4303C71832
:1018E000761CF3E759F8047B761C30786C280FD00F
:1018F00006DC4C2817D068280DD06A2814D104E0E3
:10190000742810D07A280FD10DE044F400140AE0B6
:1019100044F4801401E044F440147278824202D10D
:1019200004F58014761C761C307866280BD013DC06
:10193000582877D009DC002875D04528F6D04628ED
:10194000F4D047281AD19DE118E0632835D06428E7
:1019500079D0652812D195E1702873D008DC67280A
:10196000F1D069286FD06E280DD06F2806D1B5E070
:1019700073282CD0752875D0782874D05A461799BA
:1019800090476D1C75E1C4F30250022809D003286A
:101990000DD0D9F8001004280DD00D6009F104090C
:1019A00067E1D9F80010EA17C1E90052F6E7D9F863
:1019B00000100D80F2E70D70F0E719F8041B8DF8A8
:1019C000001000208DF80100EA46012003E059F8DC
:1019D00004AB4FF0FF3061074FF0000102D40DE07F
:1019E00008F101018846B9420FDA8045F8DB1AF8A0
:1019F00008100029F4D108E008F10101884681426D
:101A0000FADB1AF808100029F6D105985B46A0EB1E
:101A1000080721463846179A00F094FA284400EB4C
:101A2000080507E04DE029E10DE01AF8010B5A46E0
:101A300017999047B8F10108F7D25B46214638461E
:101A4000179A13E142E00A220092C4F302524FF0C7
:101A5000000A022A08D059F804CB032A4FEAEC7195
:101A60000AD00DE029E02AE009F1070121F0070280
:101A7000F2E802C1914609E00FFA8CFC4FEAEC71E2
:101A8000042A03D14FFA8CFC4FEAEC71002907DAE3
:101A90000A460021DCF1000C61EB02012D2202E07C
:101AA000220504D52B228DF80420012203E0E20751
:101AB00001D02022F7E7904659E00A2102E01022E7
:101AC0000DE010214FF0000A00910BE010224FF0C2
:101AD000000A44F004040827009203E008224FF0B3
:101AE000000A0092C4F30252022A05D059F804CB2E
:101AF0000021032A08D009E009F1070121F00702BB
:101B0000F2E802C1914605E01FFA8CFC042A01D1DB
:101B10000CF0FF0C4FF00008220728D5702806D0E3
:101B2000009B83F0100353EA0A0305D00EE0402225
:101B30008DF80420012208E05CEA010206D0302280
:101B40008DF804208DF8050002229046009B83F05A
:101B5000080353EA0A030AD15CEA010201D16207D1
:101B600005D530228DF804204FF001087F1E58283B
:101B700004D034A003900EA802900DE036A0F9E73F
:101B800053466046009AFEF71AFC84460398825C2E
:101B90000298401E029002705CEA0100F0D10298A7
:101BA00006A9081A00F1200A600702D524F480343F
:101BB00000E00127574502DDA7EB0A0000E0002006
:101BC00000EB0A01009005984144401A0590E0039B
:101BD00006D45B462146179A059800F0B3F90544F0
:101BE000002706E001A85A46C05D179990476D1C72
:101BF0007F1C4745F6DBE0030CD55B462146179A70
:101C0000059800F09FF9054404E030205A461799E2
:101C100090476D1C0099481E00900029F5DC08E0F3
:101C2000029802995A460078491C029117999047E8
:101C30006D1CBAF10001AAF1010AF1DC65E10000B6
:101C40000928010030313233343536373839616292
:101C50006364656600000000303132333435363756
:101C600038394142434445460000000000F058F92D
:101C70000544761C307800287FF4ECAD19B0284676
:101C8000BDE8F08F620700D4062709F1070222F0B1
:101C9000070CFCE80223E14603F000485FEA080C69
:101CA00002D00FF2702C0DE05FEA045C02D50FF257
:101CB000682C07E05FEAC47C02D00FF2602C01E0E0
:101CC000AFF2700C4FF0FF3823F00043CDF850C056
:101CD00065280CD006DC452809D046281DD04728A9
:101CE0003DD13DE0662818D067287ED138E000213C
:101CF000112F01DB112000E0781CCDE9000106A9BD
:101D00000EA8FFF7DDFCDDE90F010E9A039100211B
:101D1000009207F1010A04914DE04FF00040009756
:101D2000CDE9011006A90EA8FFF7CAFCDDE90F02F4
:101D300003920E9B11990022DDF80CA000930492EF
:101D400011B9791C00EB010AB7EB0A0004D4C0F109
:101D5000FF3007F1010A0490AAEB0700019044E06C
:101D6000012F00DA01270021112F01DD112000E0F1
:101D70003846CDE9000106A90EA8FFF7A1FCDDE970
:101D80000F010E9A0391002104910092BA46210797
:101D90000CD40399514500DA8A46BAF1010F05DDEA
:101DA000009AAAF10101515C302908D0B84202DA48
:101DB00010F1040F06DA0121CDE9011015E0AAF1B6
:101DC0000101E9E7002805DC049901440491AAEB2C
:101DD000000102E0411C514500DD8A460499401A89
:101DE000401C01904FF000400290200704D401985D
:101DF000504501DBCDF8048000208DF84F0002989B
:101E00000DF14F07B0F1004F25D02B200E90029816
:101E10004FF0020800280CDA404202902D200E906C
:101E200007E00A210298FEF7B4FA3031029007F871
:101E3000011DB8F10001A8F10108F2DC02980028A8
:101E4000EFD1791E0E980870307800F0200040F035
:101E5000450007F8020D12A8C01B00F107081498EE
:101E6000007800B1012000EB0A01019801EBE0715C
:101E700005984144401A401E0590E00306D45B4695
:101E80002146179A059800F05DF8054414980078EB
:101E900018B15A46179990476D1CE00324D55B464C
:101EA0002146179A059800F04DF805441CE0049867
:101EB000002807DBDDE90301884203DD0098405C70
:101EC000179901E0179930205A469047049805F178
:101ED0000105401C04900198401E019004D12E2061
:101EE0005A46179990476D1CBAF10001AAF1010AF0
:101EF000DDDC05E017F8010B5A46179990476D1C79
:101F0000B8F10001A8F10108F4DC5B462146179AFC
:101F10000598ABE62D0000002B000000200000001B
:101F20002DE9F041044600251E461746880404D4D6
:101F300005E039462020B0476D1C641EF9D52846BF
:101F4000BDE8F0812DE9F041044600251E4690468B
:101F5000C80301D5302700E02027880404D505E018
:101F600041463846B0476D1C641EF9D52846BDE889
:101F7000F081000010B50420FFF766F810480068F3
:101F80001049B0FBF1F0104908700D4800680D4988
:101F9000B0FBF1F442F2107044430A200B49088070
:101FA0004FF0E020006940F002004FF0E0210861AE
:101FB00008464461006940F00100086110BD00005E
:101FC0000000002040420F009C0000209E000020E6
:101FD00000BF054A128802F04002002AF9D0C2B2BE
:101FE000014B1B1D1A8070470038014008B50121C4
:101FF0004420FEF72BFF0120ADF8000028208DF8CB
:10200000030069460648FEF7FBFD1820ADF8000006
:1020100048208DF8030069460248FEF7F1FD08BD2F
:10202000000801400018014010B54FF44070FEF761
:10203000E3FEFFF79FFF4FF4E13000F095FEFEF75F
:102040006DFEFFF7D3FF47210120FFF75FF8FEF792
:1020500077FC002010BD00002DE9F04105460E463A
:102060001C4807681C480068001D00F0CDFE50B9F0
:102070001948006890F82C10012088401749096819
:10208000814316480160681C38B936B112480168AE
:10209000091D134800F026FF1AE07C190E4800685D
:1020A0004460BC4207D20C480168091D0D48006815
:1020B00000F0FEFE0CE008480168091D0A480068AF
:1020C00000F0F6FE09480068844201D20748046027
:1020D000BDE8F0813C0000202800002040000020E6
:1020E000F8030020300000202C00002058000020C1
:1020F00010B5044600F002FF24480068401C234944
:1021000008602348006840B9214804600846006818
:1021100001280DD100F0EEF90AE01E48006838B938
:102120001B480068C06AE16A884201D81848046008
:1021300019480068401C1849086008460068606437
:1021400094F82C1001208840144909680843134969
:102150000860E16A01EB8101114A02EB8100211D57
:1021600000F0C0FE00F00CFF0A48006868B10848A3
:102170000068C06AE16A884207D24FF0805009497E
:102180000860BFF34F8FBFF36F8F10BD3800002082
:1021900028000020440000205400002040000020BF
:1021A0002801002004ED00E010B500F0A7FE104863
:1021B0000068D0B90F4800F06BFE0F4800F068FED1
:1021C0000C480E4908600C480D4908600022102197
:1021D000052001F0B5FA064908600846006820B1FC
:1021E00008A10348006800F0B7FF00F0C9FE10BD69
:1021F0006C0000200C04002020040020640000205B
:1022000068000020546D72510000000070B523E09A
:1022100001F0D0F91348006808B9012000E000205F
:10222000054601F079FFBDB900F068FE0D48C068B1
:10223000C468201D00F0E8FD0B480068401E0A49F4
:1022400008600A480068401E0849086000F098FECF
:10225000204600F060F800BF044800680028D7D18D
:1022600070BD0000E403002038000020340000208E
:1022700070B504460D46206C70B1216CE0680844CE
:10228000E0606168E068884201D32068E060284629
:10229000226CE168FDF7B4FF70BD2DE9F041044602
:1022A0000F4615464FF00008A66B206C40B9206819
:1022B00060BB606801F06AFE80460020606025E037
:1022C0007DB93946226CA068FDF79AFF216CA068A1
:1022D0000844A060D4E90110884217D32068A060A8
:1022E00014E03946226CE068FDF78AFF216CE06853
:1022F000401AE0602168E068884203D2216C60687F
:10230000401AE060022D01D106B1761E701CA06358
:102310004046BDE8F08110B50446206B00F066FE33
:10232000204600F063FE10BD0146084A126812689C
:102330000AB9012200E000220A600A6822B9034AB1
:102340001268D268106800E0002070476400002026
:1023500030B54FF4A043174800F007042CB1C01D5E
:1023600020F00700134C041B1B1B0246124C22607A
:102370000024114D6C60D018083820F007000F4C75
:10238000206000240D4D2D686C600C4D2D682C6074
:102390001146441A4C60094C24680C60084D4C6886
:1023A0002C60084D4C682C604FF00044064D2C60AA
:1023B00030BD0000340400207800002080000020A0
:1023C00088000020840000208C00002000BFFFF760
:1023D0001DFF064800680128F9D94FF080500449D4
:1023E0000860BFF34F8FBFF36F8FF0E72801002025
:1023F00004ED00E02DE9F04106460D4617469846EB
:10240000069C0DB9246000E02760E6632564012185
:10241000204601F0B3FA84F850800020A064BDE8A3
:10242000F08100002DE9F05F82460F4690469B4602
:102430000A9E0C9C4FEA8801A522206BFDF7F2FE54
:10244000A8F10100216B01EB800929F0070909F0CF
:10245000070008B9012000E0002028B940F22B3223
:102460001BA120A0FFF70CF9002507E0795D04F11E
:1024700034004155785D00B902E06D1C102DF5D394
:1024800000BF002143200155202E00D31F26E66205
:10249000E66400202065201D00F007FD04F118000F
:1024A00000F003FD2461C6F12000A06164620020F9
:1024B000606584F858005A465146484600F0F6FBDD
:1024C00020600B9808B10B980460BDE8F09F0000F5
:1024D0004672656552544F535C7461736B732E631F
:1024E000000000004572726F723A25732C25640D4E
:1024F0000A00000010B5002407E004EB84010F4A35
:1025000002EB810000F0C4FC641C202CF5D30C48C5
:1025100000F0BEFC0B4800F0BBFC0B4800F0B8FC20
:102520000A4800F0B5FC0A4800F0B2FC044809492A
:10253000086004480849086010BD00002801002018
:10254000A8030020BC030020D0030020E4030020E7
:10255000F80300202C0000203000002010B50146B8
:10256000164800E0006803688B42FBD302464368CC
:1025700013448B4204D143684C68234443600146B2
:102580000A464B6813440468A34211D10C4C0368FB
:102590002468A34208D04B680468646823444B60F5
:1025A00003681B680B6005E0054B1B680B6001E0CE
:1025B00003680B60884200D0016010BD78000020E5
:1025C000800000202DE9F04104460D4616461F46C6
:1025D0004FF0000865602461B5420CD8F01BA1697A
:1025E000884202D34FF0010811E0211D094800681C
:1025F00000F05EFC0BE0BE4204D2BD4202D34FF0BD
:10260000010804E0211D0448006800F051FC404628
:10261000BDE8F081680000206400002070B5054628
:1026200000F06CFCA86B08B9012400E0002400F065
:10263000A7FC204670BD70B5054600F05FFCA86B96
:10264000E96B884201D1012400E0002400F098FCED
:10265000204670BD2DE9F3410D460098846C00279B
:102660002CB940F6CE121AA11EA0FFF709F8A06BF4
:10267000E16B884201D2012000E0002028B940F639
:10268000CF1213A117A0FEF7FBFFA06BE16B8842EE
:102690001BD294F945602A4669462046FFF7FDFDA6
:1026A0000746701C60B9606A08B9012000E000208C
:1026B00050B904F1240001F0D5FC28B1012703E052
:1026C000701C40B284F8450000BF3846BDE8FC816C
:1026D0004672656552544F535C71756575652E631E
:1026E000000000004572726F723A25732C25640D4C
:1026F0000A000000F8B505460F4613480068C06898
:10270000C468201D00F080FBE069012818D1A06991
:1027100041192B463A462046FFF754FF80B100206E
:1027200003462A4601460090204601F0BDFD0646BC
:102730002EB94FF4027205A109A0FEF7A1FF00BF58
:102740002046616A8847F8BD6400002046726565CE
:1027500052544F535C74696D6572732E63000000B0
:102760004572726F723A25732C25640D0A000000C1
:10277000F0B587B070E0039800280CDA04AE2EB9EB
:1027800040F2E7223AA13FA0FEF77AFFD6E9002007
:10279000B168904700BF039800285DDB059C606925
:1027A00008B9012000E0002010B9201D00F02CFB2A
:1027B00002A800F0C5F8054603980A284AD2DFE8C7
:1027C00000F00905072C2E4506082D2F00BF00BF7D
:1027D00000BF00BF0498A269811803462A4620461C
:1027E000FFF7F0FEC0B12046616A8847E069012822
:1027F00012D1002000900498A169421800231946C4
:10280000204601F051FD07462FB940F2213218A1B0
:102810001CA0FEF735FF00BF1DE000BF1BE000BF9E
:102820000498A061A06908B1012000E0002028B947
:102830004FF44E720EA113A0FEF722FFA0694119BA
:102840002B462A462046FFF7BDFE04E0204600F056
:10285000CDFB00E000BF00BF00231A4603A90D48CE
:10286000006800F0A7FF002885D107B0F0BD000088
:102870004672656552544F535C74696D6572732E70
:10288000630000004572726F723A25732C25640D47
:102890000A0000006C000020F8B505460C4600F068
:1028A00089FE684600F04CF80646009820BB44B903
:1028B000B54206D801F030FC31462846FFF71AFF32
:1028C0001CE03CB10E480068006808B9012000E037
:1028D00000200446A91B22460A48006800F052FC6A
:1028E00001F01AFC50B94FF0805007490860BFF35F
:1028F0004F8FBFF36F8F01E001F00EFCF8BD0000B9
:10290000680000206C00002004ED00E00A4909681E
:10291000096809B9012100E0002121B14FF0FF3120
:10292000064A116006E004490968C968C868034A94
:1029300041681160704700002C0000205800002002
:1029400070B5044601F06CFA0546074800688542F8
:1029500004D200F00BF80120206001E0002020608C
:1029600001480560284670BD740000202DE9F84339
:102970002DE021480068C06805681F480068C068ED
:10298000C468201D00F040FA2046616A8847E0696B
:1029900001281CD1A0694619AE4207D9666024619E
:1029A000211D1548006800F083FA10E0002003465E
:1029B0002A4601460090204601F076FC07462FB9D2
:1029C00040F292320DA112A0FEF75AFE00BF0A4853
:1029D0000068006808B9012000E000200028C8D085
:1029E0000548D0F800800E480068034908600C488C
:1029F000C0F80080BDE8F883640000204672656579
:102A000052544F535C74696D6572732E63000000FD
:102A10004572726F723A25732C25640D0A0000000E
:102A2000680000200B480068401C08B9012000E045
:102A3000002020B9F42208A111A0FEF721FE00BF5A
:102A4000502080F31188BFF34F8FBFF36F8F00BF0B
:102A500000BFFEE7900000204672656552544F5358
:102A60005C706F727461626C655C525644535C4179
:102A7000524D5F434D335C706F72742E63000000E3
:102A80004572726F723A25732C25640D0A0000009E
:102A900008B500BF6846FFF747FC0446204600998A
:102AA000FFF7FAFEFFF764FEF4E770B5044600F0A6
:102AB00025FA94F945501AE0A06C38B1002120465F
:102AC000FFF7C8FD88B100F043FC0EE0606A08B96A
:102AD000012000E0002038B904F1240001F0C2FA1E
:102AE00018B100F035FC00E003E0681E45B2002D8F
:102AF000E2DC00BFFF2084F8450000F041FA00F05E
:102B0000FDF994F9445010E0206908B9012000E073
:102B1000002048B904F1100001F0A4FA08B100F057
:102B200017FC681E45B200E001E0002DECDC00BFA0
:102B3000FF2084F8440000F023FA70BD2DE9F04135
:102B400004464FF0000800F035FD3E48006808B923
:102B5000FFF7FEFB3C480068204000285FD1A4B18D
:102B6000083404F0070080B104F00700C0F1080049
:102B7000044404F0070008B9012000E0002020B957
:102B8000BF2232A13AA0FEF77BFD002C47D03C4883
:102B90000068844243D83B4E3046056801E02E462B
:102BA0002D686868A04202D228680028F7D125481D
:102BB0000068854233D0306800F10808286830602A
:102BC0006868001B102813D92F1907F0070008B9EF
:102BD000012000E0002020B9EC221CA124A0FEF777
:102BE0004FFD6868001B78606C603846FFF7B6FCE4
:102BF000234968680968081A21490860084600687E
:102C000021490968884203D21D4800681E490860AE
:102C10000D4968680968084368600020286001F071
:102C20007BFA08F0070008B9012000E0002028B96D
:102C30004FF4967205A10EA0FEF722FD4046BDE8B6
:102C4000F0810000800000208C0000204672656545
:102C500052544F535C706F727461626C655C4D6569
:102C60006D4D616E675C686561705F342E63000056
:102C70004572726F723A25732C25640D0A000000AC
:102C800084000020780000208800002006480068AA
:102C900030B10549096801F15000096D491C016016
:102CA000014800687047000028000020001F4FF016
:102CB00080730360001F21F001030360001F034BBA
:102CC000036014380260203870470000252A00088D
:102CD0007CB50546002400F011F900BF20E004EBAC
:102CE0004400144901EBC000406904EB4401114A5F
:102CF00002EBC101097C04EB4403164606EBC30357
:102D0000CDE900101A8904EB440306EBC3035968AC
:102D100004EB440356F83300002301F041F8641C2F
:102D2000022CDCDB0448006800F08CFA00F028F983
:102D30007CBD0000AC000020A000002010B50446BF
:102D400007490C80012106482C38FEF71BFA00BF0A
:102D5000044800780028FBD000200249087010BD0C
:102D60002C040040E200002010B586B0044601218A
:102D700044F20400FEF76AF84FF40070ADF8140056
:102D800003208DF8160018208DF8170005A91C489F
:102D9000FDF736FF4FF48060ADF8140004208DF885
:102DA000170005A91648FDF72BFF25208DF8000018
:102DB00003208DF801008DF8020001208DF803003A
:102DC0006846FDF7E1FF01940020ADF80800ADF87A
:102DD0000A00ADF80C00ADF810000C20ADF80E00A4
:102DE00001A90848FEF7DAFB012240F22551054807
:102DF000FEF7AEFB01210348FEF774FB06B010BDE1
:102E0000000801400038014001460A69D1E901305B
:102E10009860D1E9010358605068884201D1886800
:102E20005060002008611068401E106010687047F4
:102E30000024FDF715FE19E000F060F8FDF7CCFD69
:102E4000044600F09DF82046FDF76EFA80460849DA
:102E5000FDF72CFA0546FDF789FA064632460B4681
:102E600004A0FEF70DFC642000F0B2F9E4E70000D6
:102E70000000204163757272656E742074656D7018
:102E80006572206973202566A1E60D0A0000000026
:102E900000F1080141604FF0FF31816000F108014D
:102EA000C16001610021016070470021016170472C
:102EB00010B502460B685C1C0CB9106907E002F102
:102EC000080000E04068446824689C42FAD94468DD
:102ED0004C604C68A160886041600A611468641CA1
:102EE000146010BD42684A6093688B6093685960B3
:102EF0009160086103685B1C0360704710B500BFF8
:102F0000502080F31188BFF34F8FBFF36F8F00BF46
:102F10000B480068401C0A49086008460068012800
:102F20000DD108480068C0B208B9012000E00020B7
:102F300028B94FF4BD7204A10DA0FEF7A1FB10BD8E
:102F40009000002004ED00E04672656552544F5336
:102F50005C706F727461626C655C525644535C4184
:102F6000524D5F434D335C706F72742E63000000EE
:102F70004572726F723A25732C25640D0A000000A9
:102F800010B50B48006828B940F2811209A113A0BE
:102F9000FEF776FB06480068401E054908600846B3
:102FA000006820B9002080F3118800BF00BF10BD69
:102FB000900000204672656552544F535C706F72EA
:102FC0007461626C655C525644535C41524D5F4380
:102FD0004D335C706F72742E630000004572726F27
:102FE000723A25732C25640D0A00000070B5064660
:102FF0003546002E35D0083D2C461A4960680968D0
:10300000084008B1012000E0002028B94FF4A07268
:1030100015A11EA0FEF734FB206808B9012000E0CE
:10302000002028B940F241120FA118A0FEF728FB9A
:103030000C4960680968084098B1206888B9094956
:10304000606809688843606000F0B4FA13496068FA
:1030500009680844114908602046FFF77FFA01F02B
:103060005BF870BD8C0000204672656552544F536A
:103070005C706F727461626C655C4D656D4D616E04
:10308000675C686561705F342E6300004572726F23
:10309000723A25732C25640D0A000000840000207C
:1030A000054800686421B0FBF1F0401E4FF0E021BC
:1030B00048610720086170470000002070B5FDF7E7
:1030C00089F80546102D11D305F1E02090F8F04362
:1030D00010480078844201DB012000E0002028B97C
:1030E0004FF42A720CA116A0FEF7CAFA184800681D
:1030F00000F4E06017490968884201D8012000E027
:10310000002028B94FF42E7203A10DA0FEF7B8FAE3
:1031100070BD0000940000204672656552544F5304
:103120005C706F727461626C655C525644535C41B2
:10313000524D5F434D335C706F72742E630000001C
:103140004572726F723A25732C25640D0A000000D7
:103150000CED00E098000020024600200BE0084B38
:1031600053F8303033B9064B43F8301003EBC0034B
:103170005A6002E0401C0828F1D300BF70470000ED
:10318000E80000202DE9F04105460E4617462C4682
:10319000FFF7B4FE94F94400401C10B9002084F8F5
:1031A000440094F94500401C10B9002084F8450003
:1031B000FFF7E6FEA06B28B93A46314604F1240039
:1031C00000F0F6F82046FFF770FCBDE8F081000043
:1031D00070B504460025ACB10F48006808B901205D
:1031E00000E0002028B940F2CF420CA110A0FEF769
:1031F00047FA00F0DFF900212046FEF72DFF00F02E
:103200008BFF05463DB94FF080500D490860BFF374
:103210004F8FBFF36F8F70BD6000002046726565F1
:1032200052544F535C7461736B732E630000000043
:103230004572726F723A25732C25640D0A000000E6
:1032400004ED00E070B50546FFF758FE15B92D48AE
:10325000006800E028460446201DFFF7D5FD78B938
:10326000E06A00EB8000284951F8200040B994F84A
:103270002C100120884025490968814323480160BA
:10328000A06A18B104F11800FFF7BEFD20480068DD
:10329000401C1F4908601B480068844209D1211D59
:1032A0001C48FFF71FFE1C480068401C1A490860B4
:1032B00009E01A480068401E184908602046FFF7D8
:1032C0002AF8FFF723FBFFF75BFE15480068C0B143
:1032D0000C480068844214D11248006808B90120E3
:1032E00000E0002028B940F265420FA113A0FEF7CC
:1032F000C7F94FF0805015490860BFF34F8FBFF3F7
:103300006F8F70BD280000202801002040000020A1
:1033100054000020E4030020340000203800002086
:1033200044000020600000204672656552544F53EF
:103330005C7461736B732E63000000004572726FE2
:10334000723A25732C25640D0A00000004ED00E09C
:1033500001200149086070474C00002070B5044608
:103360000D462CB940F6063207A10CA0FEF788F9ED
:103370000E48016818312046FFF79AFD01212846C2
:10338000FEF76AFE70BD00004672656552544F53E9
:103390005C7461736B732E63000000004572726F82
:1033A000723A25732C25640D0A00000028000020C5
:1033B00070B505460E4614462DB940F6313209A1C6
:1033C0000DA0FEF75DF91048016818312846FFF797
:1033D00089FD0CB14FF0FF3621463046FEF73CFE2A
:1033E00070BD00004672656552544F535C74617342
:1033F0006B732E63000000004572726F723A257382
:103400002C25640D0A0000002800002070B5054638
:103410002C46002D4BD02649E06A0968C96A8842CB
:1034200045D2A06900F0004028B921480068C06A70
:10343000C0F12000A061E16A01EB81011D4A02EBAD
:1034400081016069884201D1012000E0002050B371
:10345000201DFFF7D9FC78B9E06A00EB8000154920
:1034600051F8200040B994F82C10012088401249EE
:1034700009688143104801600D480068C06AE06235
:1034800094F82C10012088400B49096808430A4928
:103490000860E16A01EB8101064A02EB8100211D0F
:1034A000FFF720FD03E002480068C06AE06270BDDB
:1034B00028000020280100204000002010B504460C
:1034C0002CB940F6C13205A109A0FEF7D9F80C4885
:1034D000006820600B480068606010BD467265653A
:1034E00052544F535C7461736B732E630000000081
:1034F0004572726F723A25732C25640D0A00000024
:10350000500000203C0000201CB51A4800210B464A
:103510008222CDE9001018A1194800F041FC0446B0
:10352000012C02D100F088FE0446012C15D100BF09
:10353000502080F31188BFF34F8FBFF36F8F00BF10
:103540004FF0FF300F49086001200F49086000204C
:103550000E49086000F08AF80BE0601C08B10120F9
:1035600000E0002028B940F2847209A10DA0FEF706
:1035700087F81CBD5C00002049444C450000000059
:10358000CD23000858000020440000203C0000200B
:103590004672656552544F535C7461736B732E634E
:1035A000000000004572726F723A25732C25640D7D
:1035B0000A00000002480068401C0149086070478A
:1035C0006000002010B51B48006818B101201A499E
:1035D00008602DE000201849086018480068B0FA1B
:1035E00080F0C0F11F0404EB8400154951F820005D
:1035F00008B1012000E0002028B940F6F62211A110
:1036000015A0FEF73DF804EB84010D4A02EB8100A2
:1036100041684968416000F1080142688A4202D16C
:103620004168496841604168C9680F4A116000BF3C
:1036300010BD0000600000204C0000204000002071
:10364000280100204672656552544F535C746173C3
:103650006B732E63000000004572726F723A25731F
:103660002C25640D0A000000280000201CB522480B
:10367000014609780191FF2102461170014609783F
:1036800000919DF8001001F050011C4A11700721B3
:103690001B4A116009E01A490968491E184A11605D
:1036A0009DF800104906090E00919DF8001001F0E8
:1036B00080018029EFD0124909680902104A11607F
:1036C0001146098801F4E06111600B4A01991170FB
:1036D0000C48006840F470000A4908600846006819
:1036E00040F070400860FFF7DBFC002006490860EE
:1036F000FCF73AFD00201CBD00E400E0940000202F
:103700009800002020ED00E09000002010B500BFE0
:10371000502080F31188BFF34F8FBFF36F8F00BF2E
:1037200000F084FB18B14FF080500449086000BFDE
:10373000002080F3118800BF10BD000004ED00E000
:103740002DE9F84305460E4690460DB1012000E0F4
:10375000002028B94FF4C4720DA112A0FDF790FF0C
:103760000EB9002701E005FB06F707F15400FFF74B
:10377000E5F9044644B104F1540943464A4631464A
:1037800028460094FEF736FE2046BDE8F883000088
:103790004672656552544F535C71756575652E634D
:1037A000000000004572726F723A25732C25640D7B
:1037B0000A0000002DE9FF4782B005460E461F466D
:1037C0004FF0000A2C462CB940F2DC4261A166A001
:1037D000FDF756FF0EB9206C08B9012000E000206B
:1037E00028B940F2DD425BA15FA0FDF749FF00F080
:1037F00007FB08B9049808B9012000E0002028B9A7
:103800004FF49C6253A158A0FDF73AFF00BFFFF7A9
:1038100075FBD4F83890B9F1000F3DD0D4F80C8086
:1038200031462046FEF724FDDFB9A9F10100A0636F
:10383000206810B9FFF72AFA6060206908B90120F2
:1038400000E0002010BB04F1100000F00BFCE8B118
:103850004FF0805048490860BFF34F8FBFF36F8F20
:1038600014E0C4F80C80606A08B9012000E0002070
:1038700060B904F1240000F0F5FB38B14FF080503E
:103880003D490860BFF34F8FBFF36F8FFFF778FBA1
:10389000012006B0BDE8F087049818B9FFF770FB67
:1038A0000020F6E7BAF1000F04D16846FFF706FEE4
:1038B0004FF0010AFFF764FBFFF77CFEFFF71EFBEA
:1038C00094F94400401C10B9002084F8440094F995
:1038D0004500401C10B9002084F84500FFF750FB5C
:1038E00004A9684600F00CFA40BB2046FEF796FE9D
:1038F000F0B1206830B9FFF701FB6068FFF786FD83
:10390000FFF73EFB04F124000499FFF727FD204652
:10391000FFF7CBF800F000FC00287FF478AF4FF001
:10392000805015490860BFF34F8FBFF36F8F6EE76C
:103930002046FFF7BAF800F0EFFB68E72046FFF7F4
:10394000B4F800F0E9FB2046FEF768FE0028EED050
:1039500000209EE74672656552544F535C71756551
:1039600075652E63000000004572726F723A257310
:103970002C25640D0A00000004ED00E070B505463A
:103980000E462C462CB940F21B121EA122A0FDF7B8
:1039900077FEFFF7B3FAD4E90F12206801FB0200AB
:1039A00060600020A0632068A060E06B401E226C75
:1039B000216800FB0210E060FF2084F8440084F8D6
:1039C00045009EB9206908B9012000E00020A8B98F
:1039D00004F1100000F046FB80B14FF08050124916
:1039E0000860BFF34F8FBFF36F8F07E004F1100043
:1039F000FFF74EFA04F12400FFF74AFAFFF7C0FA86
:103A0000012070BD4672656552544F535C717565F7
:103A100075652E63000000004572726F723A25735F
:103A20002C25640D0A00000004ED00E02DE9FF43A1
:103A300083B0064688461D464FF0000934462CB92F
:103A400040F2D92260A165A0FDF71AFEB8F1000F7F
:103A500001D1206C08B9012000E0002028B940F213
:103A6000DA2259A15DA0FDF70BFE022D02D1E06B19
:103A7000012801D1012000E0002028B940F2DB221A
:103A800051A156A0FDF7FCFD00F0BAF908B9059860
:103A900008B9012000E0002028B940F2DE224AA146
:103AA0004EA0FDF7EDFD00BFFFF728FAA06BE16B1C
:103AB000884201D3022D38D12A4641462046FEF7DE
:103AC000ECFB0746A06C68B129462046FEF7C2FD14
:103AD00028B34FF0805045490860BFF34F8FBFF3C4
:103AE0006F8F1CE0606A08B9012000E0002068B90F
:103AF00004F1240000F0B6FA88B14FF080503B4941
:103B00000860BFF34F8FBFF36F8F08E03FB14FF0F6
:103B1000805036490860BFF34F8FBFF36F8FFFF7B8
:103B20002FFA012007B0BDE8F083059818B9FFF718
:103B300027FA0020F6E7B9F1000F04D101A8FFF73A
:103B4000BDFC4FF00109FFF71BFAFFF733FDFFF74C
:103B5000D5F994F94400401C10B9002084F84400C1
:103B600094F94500401C10B9002084F84500FFF787
:103B700007FA05A901A800F0C3F8F0B92046FEF73E
:103B80005AFDA0B104F110000599FFF7E7FB2046AC
:103B9000FEF78BFF00F0C0FA002885D14FF080506F
:103BA00012490860BFF34F8FBFF36F8F7CE7204649
:103BB000FEF77BFF00F0B0FA76E72046FEF775FFD0
:103BC00000F0AAFA0020ADE74672656552544F53E3
:103BD0005C71756575652E63000000004572726F3B
:103BE000723A25732C25640D0A00000004ED00E0F4
:103BF0002DE9F05F80468A4615461E4644462CB99C
:103C000040F29F3235A13AA0FDF73AFDBAF1000F1C
:103C100001D1206C08B9012000E0002028B94FF440
:103C200068722EA132A0FDF72BFD022E02D1E06BAF
:103C3000012801D1012000E0002028B940F2A13282
:103C400026A12BA0FDF71CFDFFF738FA00BF50217D
:103C5000EFF3118081F31188BFF34F8FBFF36F8FA4
:103C600000BF0746A06BE16B884201D3022E2BD127
:103C700094F945B0324651462046FEF70EFB0BF153
:103C80000100C8B9A06C40B131462046FEF7E2FC05
:103C9000B8B1B5B10120286013E0606A08B901200D
:103CA00000E0002068B904F1240000F0DBF940B125
:103CB0003DB10120286004E00BF1010040B284F81E
:103CC00045004FF0010901E04FF0000900BF87F304
:103CD000118800BF4846BDE8F09F00004672656548
:103CE00052544F535C71756575652E63000000007A
:103CF0004572726F723A25732C25640D0A0000001C
:103D00002DE9F04104460D462CB940F6CB3219A1FD
:103D10001DA0FDF7B5FC2DB940F6CC3215A11AA0B7
:103D2000FDF7AEFCFFF7EAF81B4807682868401C5F
:103D300008B9002619E0194920680968884204D0AA
:103D40006068B84201D801260FE06068381A296817
:103D5000884209D228686168791A401A286020468A
:103D6000FFF7ACFB002600E00126FFF709F930461B
:103D7000BDE8F0814672656552544F535C746173BF
:103D80006B732E63000000004572726F723A2573E8
:103D90002C25640D0A0000003C000020500000208B
:103DA0002DE9FF4F85B0804689461746DDE912AB05
:103DB000B800FEF7C3FE064656B15C20FEF7BEFE15
:103DC00004460CB1266304E03046FFF70FF900E02B
:103DD00000247CB10020CDE900ABCDE902403A4699
:103DE00049464046089BFEF71DFB2046FEF780F93A
:103DF000012501E04FF0FF35284609B0BDE8F08FFE
:103E00000549096809B9012005E00449096809B9AB
:103E1000022000E0002070474400002060000020E5
:103E200001490868704700003C0000202DE9F0417E
:103E30004FF0000841480068002872D140480068EF
:103E4000451C3F480560EDB93E480068006808B968
:103E5000012000E0002028B940F6D9123AA13FA085
:103E6000FDF70EFC37480768404800683549086090
:103E70003E4807603E480068401C3D490860FEF728
:103E800045FD00BF3B48006885423CD300BF2D483C
:103E90000068006808B9012000E0002020B14FF060
:103EA000FF30344908602DE026480068C068C468C7
:103EB0006668B54202D22F48066023E0201DFEF757
:103EC000A3FFA06A18B104F11800FEF79DFF94F853
:103ED0002C100120884028490968084326490860B9
:103EE000E16A01EB8101254A02EB8100211DFEF709
:103EF000F9FF2349E06A0968C96A8842C7D34FF0CD
:103F00000108C4E700BF1E480068C06A00EB8000DB
:103F10001A4951F82000012801D94FF0010805E0A5
:103F2000FFE718480068401C1649086016480068FA
:103F300008B14FF001084046BDE8F0816000002064
:103F40003C0000202C0000204672656552544F53FF
:103F50005C7461736B732E63000000004572726FB6
:103F6000723A25732C25640D0A00000030000020F1
:103F700050000020580000204000002028010020B0
:103F800028000020480000204C00002070B50546A5
:103F90002C460026002D4BD026480068844201D1D3
:103FA000012000E0002028B940F6C76222A127A026
:103FB000FDF766FB206D28B940F6C9621EA123A05B
:103FC000FDF75EFB206D401E2065E16CE06A8842D3
:103FD0002ED0206D60BB201DFEF716FF78B9E06A79
:103FE00000EB80001D4951F8200040B994F82C10D6
:103FF000012088401A490968814319480160E06C32
:10400000E062E06AC0F12000A06194F82C10012069
:10401000884013490968084311490860E16A01EBC7
:1040200081010E4A02EB8100211DFEF75BFF012694
:10403000304670BD280000204672656552544F53CB
:104040005C7461736B732E63000000004572726FC5
:10405000723A25732C25640D0A0000002801002007
:104060004000002070B50646F068C4682CB940F6E0
:1040700061321AA11EA0FDF703FB04F11800FEF740
:10408000C3FE1F480068A8B9201DFEF7BDFE94F8C6
:104090002C10012088401B49096808431949086011
:1040A000E16A01EB8101184A02EB8100211DFEF754
:1040B00019FF04E004F118011448FEF713FF144936
:1040C000E06A0968C96A884204D9012501201149BA
:1040D000086000E00025284670BD00004672656556
:1040E00052544F535C7461736B732E630000000075
:1040F0004572726F723A25732C25640D0A00000018
:10410000600000204000002028010020D003002093
:10411000280000204C00002070B500240026344800
:10412000006828B94FF4FD6232A137A0FDF7A8FA64
:10413000FEF7E4FE2E480068401E2D490860084640
:10414000006800284FD13448006800284BD024E094
:104150003248C068C46804F11800FEF755FE201DFF
:10416000FEF752FE94F82C10012088402C49096873
:1041700008432B490860E16A01EB8101294A02EBFF
:104180008100211DFEF7AEFE2749E06A0968C96A71
:10419000884202D30120254908602048006808B9F8
:1041A000012000E000200028D2D00CB1FEF7AEFBC9
:1041B0001F48056865B100BFFFF738FE10B1012048
:1041C0001A4908606D1E002DF6D1002018490860BC
:1041D0001648006838B10126300716490860BFF359
:1041E0004F8FBFF36F8FFEF7CBFE304670BD0000E0
:1041F000600000204672656552544F535C746173D1
:104200006B732E63000000004572726F723A257363
:104210002C25640D0A00000038000020D003002087
:104220004000002028010020280000204C00002031
:104230004800002004ED00E01CB50024FDF7B4FFA9
:104240000B48006858B10B481F2100234FF48272BD
:10425000CDE9001008A10A48FFF7A2FD04462CB9D9
:1042600040F2331207A10CA0FDF70AFA20461CBD4C
:104270006C00002070000020546D722053766300A3
:10428000912A00084672656552544F535C74696DFB
:104290006572732E630000004572726F723A257367
:1042A0002C25640D0A0000002DE9FF4704460D4649
:1042B00016461F46DDF830804FF000092CB94FF448
:1042C000D37217A11BA0FDF7DBF91E48006810B3DD
:1042D000009501960294062D15DAFFF791FD02284C
:1042E00008D100234246694616480068FFF79EFB46
:1042F000814610E000231A46694612480068FFF71D
:1043000095FB814607E000233A4669460D48006860
:10431000FFF76EFC8146484604B0BDE8F087000018
:104320004672656552544F535C74696D6572732EA5
:10433000630000004572726F723A25732C25640D7C
:104340000A0000006C000020445331384232305FD4
:104350007461736B000000004C45445F7461736BC3
:10436000000000008443000800000020E800000076
:10437000A01600086C440008E8000020185800004F
:10438000B016000800A24A0400000000000000006F
:1043900001020304060708090000000001020304EB
:1043A00001020304060708090204060800000000D1
:1043B00000000000000000000000000000000000FD
:1043C00000000000000000000000000000000000ED
:1043D00000000000000000000000000000000000DD
:1043E00000000000000000000000000000000000CD
:1043F00000000000000000000000000000000000BD
:1044000000000000000000000000000000000000AC
:1044100000000000AAAAAAAA0000000000000000F4
:10442000000000000000000000000000000000008C
:10443000690D0008584300088000000000000000DB
:1044400003000000A4000020312E000848430008AB
:10445000800000000000000004000000A800002010
:0C44600000000000000000000000000050
:0400000508000131BD
:00000001FF
